:100000000C9446000C9465000C9465000C946500FB
:100010000C9465000C9465000C9465000C946500CC
:100020000C9465000C9465000C9465000C946500BC
:100030000C9465000C9465000C9465000C946500AC
:100040000C9465000C9465000C9465000C9465009C
:100050000C9465000C9465000C9465000C9465008C
:100060000C9465000C9465000C9465000C9465007C
:100070000C9465000C9465000C9465000C9465006C
:100080000C9465000C9465000C94650011241FBE4F
:10009000CFEFD0E4DEBFCDBF11E0A0E0B1E0E8E6F5
:1000A000F3E000E00BBF02C007900D92A031B10752
:1000B000D9F721E0A0E1B1E001C01D92A231B20761
:1000C000E1F70E94A1000C94B2010C940000CF93C0
:1000D000DF9300D01F92CDB7DEB789837B836A831D
:1000E00089818A3031F48A819B81BC018DE00E9434
:1000F000670080EC90E0FC018081882F90E08072A6
:100100009927892BB1F386EC90E02981FC012083AB
:1001100080E090E00F900F900F90DF91CF910895C5
:10012000CF93DF93CDB7DEB78AE790E02AE730E0E0
:10013000F9012081206EFC0120830000DF91CF9126
:100140000895CF93DF9300D01F92CDB7DEB781E241
:1001500090E0FC01108282E290E02FEFFC0120830E
:1001600084E290E02FEFFC01208385E290E0FC0127
:1001700010828AE290E02FEFFC0120838BE290E076
:10018000FC0110820E949000198280910E01282F9C
:1001900030E080910F01882F90E0A901481B590B96
:1001A000CA0127E030E0B9010E948A01CB019B839C
:1001B0008A8388E790E0FC0180819181909311010E
:1001C0008093100180911001909111018983809199
:1001D0000F019981891730F085E290E021E0FC0160
:1001E0002083E7CF8981282F30E080910F01482FAD
:1001F00050E08A819B81840F951F8217930730F00E
:1002000085E290E023E0FC012083D3CF8981282F71
:1002100030E080910F01482F50E08A819B81880F48
:10022000991F840F951F8217930730F085E290E0A5
:1002300027E0FC012083BDCF8981482F50E08091C9
:100240000F01682F70E02A813B81C901880F991F37
:10025000820F931F860F971F8417950730F085E252
:1002600090E02FE0FC012083A4CF8981282F30E08B
:1002700080910F01482F50E08A819B81880F991F40
:10028000880F991F840F951F8217930730F085E21E
:1002900090E02FE1FC0120838CCF8981482F50E032
:1002A00080910F01682F70E02A813B81C901880F7E
:1002B000991F880F991F820F931F860F971F84170E
:1002C000950730F085E290E02FE3FC01208371CFA9
:1002D0008981482F50E080910F01682F70E02A81BA
:1002E0003B81C901880F991F820F931F880F991FA7
:1002F000860F971F8417950730F085E290E02FE76F
:10030000FC01208356CF85E290E020910E01FC0194
:1003100020834FCF97FB072E16F4009407D077FD6C
:1003200009D00E949E0107FC05D03EF4909581956E
:100330009F4F0895709561957F4F0895AA1BBB1B31
:1003400051E107C0AA1FBB1FA617B70710F0A61BD5
:10035000B70B881F991F5A95A9F780959095BC01F6
:08036000CD010895F894FFCFD0
:100368000000000200000000670000000000FF47D6
:00000001FF
