:100000000C9446000C9465000C9465000C946500FB
:100010000C9465000C9465000C9465000C946500CC
:100020000C9465000C9465000C9465000C946500BC
:100030000C9465000C9465000C9465000C946500AC
:100040000C9465000C9465000C9465000C9465009C
:100050000C9465000C9465000C9465000C9465008C
:100060000C9465000C9465000C9465000C9465007C
:100070000C9465000C9465000C9465000C9465006C
:100080000C9465000C9465000C94650011241FBE4F
:10009000CFEFD0E4DEBFCDBF11E0A0E0B1E0E0EDF6
:1000A000F1E000E00BBF02C007900D92AE30B10747
:1000B000D9F721E0AEE0B1E001C01D92A031B20756
:1000C000E1F70E94A1000C94E6000C940000CF938D
:1000D000DF9300D01F92CDB7DEB789837B836A831D
:1000E00089818A3031F48A819B81BC018DE00E9434
:1000F000670080EC90E0FC018081882F90E08072A6
:100100009927892BB1F386EC90E02981FC012083AB
:1001100080E090E00F900F900F90DF91CF910895C5
:10012000CF93DF93CDB7DEB78AE790E02AE730E0E0
:10013000F9012081206EFC0120830000DF91CF9126
:100140000895CF93DF9300D0CDB7DEB781E290E082
:10015000FC01108282E290E02FEFFC01208384E218
:1001600090E02FEFFC01208385E290E0FC011082FB
:100170008AE290E02FEFFC0120838BE290E0FC010B
:1001800010820E94900019821A8288E790E0FC0198
:100190008081918190930F0180930E0180910E01D7
:1001A00090910F01898380910E0190910F01892F09
:1001B000992783708A8385E290E02981FC0120835E
:1001C0008BE290E02A81FC012083DFCFF894FFCFFF
:0E01D0000000000200000000670000000000B8
:00000001FF
